:020000040800F2
:100000000009002065010008612E00088524000811
:1000100000000000000000000000000000000000E0
:10002000000000000000000000000000C1330008D4
:100030000000000000000000632E0008C333000829
:1000400077010008770100087701000877010008B0
:1000500077010008770100087701000877010008A0
:100060000000000077010008770100087701000810
:100070007701000877010008000000007701000800
:1000800000000000553400080000000000000000DF
:1000900077010008000000007701000889240008AB
:1000A000A92400087701000877010008F13B000847
:1000B0007701000877010008000000000000000040
:1000C00000F002F800F03EF80CA030C80838241800
:1000D0002D18A246671EAB4654465D46AC4201D180
:1000E00000F030F87E460F3E0FCCB6460126334274
:1000F00000D0FB1AA246AB4633431847EC3C000045
:100100000C3D0000103A02D378C878C1FAD85207E3
:1001100001D330C830C101D504680C6070470000BD
:100120000023002400250026103A01D378C1FBD813
:10013000520700D330C100D50B6070471FB51FBDFB
:1001400010B510BD00F078FA1146FFF7F7FF03F085
:100150009FFD00F090FA03B4FFF7F2FF03BC00F03C
:1001600093FA00000748804707480047FEE7FEE78C
:10017000FEE7FEE7FEE7FEE704480549054A064BB1
:100180007047000051340008C1000008000300203F
:10019000000900200005002000050020FEB50546EE
:1001A00010460C46184373D0AE468C460020AD1A5C
:1001B00001469C4167D36646002701243D46B61A96
:1001C0009D4102D313463A462124654676462F04C4
:1001D000360C3E432D0CB61A9D4104D3150C1B045E
:1001E0002B4312041034654676462F06360A3E43EA
:1001F0002D0AB61A9D4104D3150E1B022B43120281
:100200000834654676462F0736093E432D09B61A4F
:100210009D4104D3150F1B012B431201241D65467C
:100220007646AF07B6083E43AD08B61A9D4104D3E3
:10023000950F9B002B439200A41C65467646EF0762
:1002400076083E436D08B61A9D411AD392185B4159
:10025000641C16E00018764665464941B71A9D4170
:100260000191009009D36046B11A98418E468446A8
:10027000009801990025401C6941DD0752082A4376
:100280005B08641EE6D57246634603B0F0BDFFE727
:1002900000200146C046C0462A462346F5E701E055
:1002A00004C0091F0429FBD28B0701D50280801CE2
:1002B000C90700D00270704700290BD0C30702D0D5
:1002C0000270401C491E022904D3830702D5028014
:1002D000801C891EE3E70022EEE70022DFE7002210
:1002E00003098B422CD3030A8B4211D300239C4673
:1002F0004EE003460B433CD4002243088B4231D3EB
:1003000003098B421CD3030A8B4201D394463FE07E
:10031000C3098B4201D3CB01C01A524183098B42DE
:1003200001D38B01C01A524143098B4201D34B01C7
:10033000C01A524103098B4201D30B01C01A52412A
:10034000C3088B4201D3CB00C01A524183088B42B1
:1003500001D38B00C01A524143088B4201D34B009A
:10036000C01A5241411A00D201465241104670470C
:100370005DE0CA0F00D04942031000D34042534011
:1003800000229C4603098B422DD3030A8B4212D3D1
:10039000FC22890112BA030A8B420CD38901921103
:1003A0008B4208D3890192118B4204D389013AD040
:1003B000921100E08909C3098B4201D3CB01C01A15
:1003C000524183098B4201D38B01C01A5241430928
:1003D0008B4201D34B01C01A524103098B4201D316
:1003E0000B01C01A5241C3088B4201D3CB00C01A83
:1003F000524183088B4201D38B00C01A5241D9D29B
:1004000043088B4201D34B00C01A5241411A00D21B
:100410000146634652415B10104601D34042002B17
:1004200000D54942704763465B1000D3404201B596
:100430000020C046C04602BD7047704770470000AC
:10044000F0B5FF252D04C609C209FF2704462E403A
:100450000137CB093E4348402A402B400746002A3B
:100460006BD0002B69D0AA4267D0AB4265D0002880
:1004700000DA32460125ED0529432C43090220020A
:10048000090AD21A4B0C7F24E31A434C000A7C441D
:10049000E35C7D242404121914145B00A218884222
:1004A00001D3521C00E0400049420C465C43241139
:1004B0005C43DB016415E318040A5C43C502200DAC
:1004C0000C4644436419250A5D432303EC0C0D4696
:1004D000654300030019EB184C42A34201D35B189B
:1004E000401CD4052018002B07D05B00C91804D38A
:1004F000401C002901D1400840003F2189048A4264
:1005000009D3002A08DC1106090F04D0032149078A
:100510004018C00FC007F0BD012241001206891823
:100520007F2252069142F6D205214907C84201D5E1
:100530009010F0BDFF20C005F0BD002F00DA32465C
:100540001648AA4207D2AB4205D21902090E17D0AB
:10055000F80FC007F0BDFF2563002D06AB42F9D8A8
:100560004900A942F6D8AB4201D1A942F2D0A94232
:1005700001D1002101E061004908D0050843F0BD28
:100580001102090EFBD0FF200243D005F0BD0A4640
:100590000146104654E70000133900000000C07FF8
:1005A0000102C21504D00123DB071943002A0ADB2C
:1005B0009E239A1A02D40846D0407047FF22410079
:1005C0001206914201D900207047C017C0437047FE
:1005D0001F22030C02D10F2200041CD0030E01D1F4
:1005E0000002083A030F01D10001121F830F01D14D
:1005F0008000921E002801DB4000521ED2055118D7
:10060000021251181922904004D3491C002801D12C
:100610004908490008467047C10FC90700D0404249
:10062000012292071143D3E701218907D0E7000097
:1006300000487047A00200207546FFF7F9FFAE465C
:10064000050069465346C008C000854618B020B56D
:10065000FFF792FD60BC00274908B6460026C0C5DA
:10066000C0C5C0C5C0C5C0C5C0C5C0C5C0C5403D6A
:1006700049008D46704710B50446C046C046204626
:10068000FFF769FD10BD000001491820ABBEFEE771
:1006900026000200704710B5012105200022090341
:1006A000000700F0FFFAD02000F08EF8602802D09A
:1006B00000F098F910BDB621E02000F051F900F0EB
:1006C000BEF8C007FBD100F019F8A02000F039F9FE
:1006D000082000F0E7F8602000F025F9082000F07D
:1006E00013F9012000F0FBF8F42000F06DF8F2207F
:1006F00000F06AF8032000F0E4F810BD70B531494D
:10070000882000F095F82F4C8A20A11C00F089F871
:10071000211D8C2000F085F8A11D8E2000F088F8A6
:1007200021460831902000F07CF821460A319220C1
:1007300000F077F821460C31942000F072F8214641
:100740000E31962000F06DF821461031982000F00F
:1007500068F8214612319A2000F063F821461431DE
:100760009C2000F05EF8214616319E2000F059F8DA
:10077000A12000F029F8207621461A31E12000F06E
:1007800050F8E32000F020F82077E42000F01CF877
:100790000501E52000F018F80007000F0543E58388
:1007A000E62000F011F80501E52000F00DF8000941
:1007B00005432584E72000F007F8214620318870A2
:1007C00070BD00001C0000201FB5024600206B46D3
:1007D0001873012403A8240401230090EE2102943D
:1007E0000193054800F04AFB002801D000F0FAF818
:1007F0006846007B04B010BD9001002010B50C4687
:100800000A460146EE2002F04FFA2068FF2201025C
:1008100012020240090E00061143000A0143216042
:1008200010BD0A4610B50146EE2002F029FA10BDAF
:100830000A4610B50146EE2002F022FA10BD10B5AE
:10084000F320FFF7C1FF0921084010BD38B5694604
:10085000FA20FFF7D3FF009801090F4800910288A2
:10086000CB0854000909891A1B1B02240422045FC7
:100870004943825E090B51436343880BDB0A0749F6
:10088000181808608100401880300012FFF7C4FE7D
:100890000349FFF7D5FD38BD1C00002000000020F3
:1008A0000000C84210B50446F520FFF78DFFE32194
:1008B000014020461C2210400143F52000F050F872
:1008C00010BD10B50446F420FFF77EFF8008A10795
:1008D0008000890F0143F42000F042F810BD10B5EC
:1008E0000446F220FFF770FFC0086107C000490FFF
:1008F0000143F22000F034F8F420FFF765FF0146D1
:10090000F42000F02DF810BD10B50446F420FFF7D8
:100910005BFFE321014020461C2210400143F420EC
:1009200000F01EF810BD10B50446F420FFF74CFF90
:10093000C0066109C00E49010143F42000F010F81F
:1009400010BD10B50446F520FFF73EFFC006610953
:10095000C00E49010143F52000F002F810BD00006F
:100960001FB50B46024668460373012403A82404FE
:1009700001230090EE2102940193044800F028FB2B
:10098000002801D000F02EF81FBD000090010020CB
:10099000F0B50023114A124E8D1E0EE0C45C624079
:1009A0000824D70702D05208724000E05208641EA3
:1009B0002406240EF5D15B1C9BB2AB42EED340184B
:1009C0002038D3B2817F120A994204D1C07F90426D
:1009D00001D10120F0BD0020F0BD0000FFFF0000AC
:1009E00001A0000010B5012205201103000700F04E
:1009F00059F910BD70B50E4A00230E4D0EE0C45CCF
:100A000062400824D60702D052086A4000E052082B
:100A1000641E2406240EF5D15B1C9BB28B42EED3E0
:100A20004254130A491C4354491CC8B270BD00000B
:100A3000FFFF000001A0000030B5014620314A79D7
:100A40000023022A04D00422C2630B71012030BDAE
:100A5000026814680E25AC431460026814686408C8
:100A600064001460446C1C22144001221546006C82
:100A7000A54045604A7118460B7130BD70B5002421
:100A8000014620314A79022A03D00421C16301249E
:100A900018E0026813680E25AB4313600268136800
:100AA0005B085B001360436C1C2213400122154657
:100AB0009D40036C5D604A7100220A71816B0029C0
:100AC00000D08847204670BD203040797047000034
:100AD00070B5044600F0ECF80546601C02D00448EE
:100AE0000078241800F0E4F8401BA042FAD370BD4F
:100AF0000C000020F8B5002303240125BDE0324698
:100B00002E469E40B446324079D00E79B607B60FD5
:100B1000012E01D0022E17D186682746B6465E0008
:100B2000B74000967646BE43B646CF68009EB740B3
:100B300076463743876046686746BE430F79FF06AF
:100B4000FF0F9F40374347600E79F643B6070ED03C
:100B5000C6682746B4465E00B646B7406646BE4302
:100B6000B4468F687646B74066463743C7600E790D
:100B7000B607B60F022E14D1DE08B600361800965E
:100B8000366A5F07B446FE0E0F27B646B740664684
:100B9000BE43B4460F697646B74066463743009E6B
:100BA000376206682746B4465E00B646B7406646DA
:100BB000BE430F79B446BF07BF0F7646B7406646BF
:100BC000374307604E68B603B60F55D02E4F7E6B85
:100BD0002E437E639F082D4EBF00BE190096B66857
:100BE0000F27B4469E07360FB646B7406646BE434B
:100BF00005273F07B446B84202D1002715E03BE085
:100C0000234FB84201D101270FE0224FB84201D152
:100C100002270AE0204FB84201D1032705E01F4F09
:100C2000B84201D1052700E006277646B740664660
:100C30003743009EB7601A4E36684F689643FF03ED
:100C400000D51643164F3E607E684F689643BF033B
:100C500000D51643124F7E60BE684F689643FF0270
:100C600000D516430E4FBE60FE684F689643BF0224
:100C700000D516430A4AD6605B1C0A681646DA405D
:100C800000D03CE7F8BD0000001002400000014029
:100C90000004005000080050000C0050001C0050E0
:100CA00000040140002A01D08161704781627047D1
:100CB00001488068704700000C00002070B50246B3
:100CC00040325378202B1CD11378012B19D00123EB
:100CD000137024245470046825689D4325600468BB
:100CE00025681E03B5432560046825680D4325600B
:100CF00000680168194301602020507000201070C6
:100D000070BD022070BD70B5024640325378202B72
:100D10001BD11378012B18D0012414702423537095
:100D200003681D68A5431D6005682B680F26360201
:100D3000B343090219432960006801682143016037
:100D4000202050700020107070BD022070BD7047D0
:100D5000704770B503689A691968D243D40508D4FE
:100D6000CC43240605D4446C01252C4344642C0256
:100D7000DC61530509D4CB431B0606D4436C08241D
:100D800023434364E3010468E361920509D4C94342
:100D9000090606D4416C0222114341641102026823
:100DA000D161416C0B22114201D001F013FC70BDE6
:100DB000026891691268436B002B00D01847704796
:100DC0007047000070B5040006D0254640356878AD
:100DD0000026002802D005E0012070BD2E702046BC
:100DE00000F09CF9242068702068016849084900D7
:100DF00001600F2160680906884321680861216845
:100E00008A680120C00382438A60E1680129A168E1
:100E100008D021229202114322689160E1680229E0
:100E200002D005E00143F7E701212268C9025160C1
:100E300021684A680F4B1A434A602168CA68824396
:100E4000CA60616920690843A169090208432168F1
:100E5000C860216AE0690843216808602068016869
:100E60000122114301606664202068702663AE7021
:100E7000002070BD0080000270470000FFB50546ED
:100E800004464035687883B0202875D10C98002836
:100E900014D00D98002811D0287801286CD001209A
:100EA0002870FFF705FF0746012200901923D103A0
:100EB000204601F070FE002874D103E001204002BA
:100EC00060646FE0222068704020A870002666648D
:100ED0000C9860620D98608566630E98009001978B
:100EE00004A90EC9204601F037FD002801D02E705C
:100EF00058E0618D3448FF2905D9FF22228501235E
:100F00001B06009006E0618D21850090208D012355
:100F1000C2B25B062046049901F016FE009700223B
:100F2000042120460E9B01F036FE00283AD12068AD
:100F3000406A616A0870606A401C6062208D401ED1
:100F400081B22185608D401E6085608D00281FD094
:100F500000291DD100970022802120460E9B01F020
:100F60001AFE00281ED1608DFF2806D9FF22228597
:100F700001231B06009607E024E0608D2085009683
:100F8000208D0123C2B25B062046049901F0DCFDEE
:100F9000608D0028C2D13A4620460E9901F022FE0B
:100FA000002802D0012007B0F0BD20682021C161D7
:100FB00020684268054B1A4042606970AE702E701E
:100FC0000020F0E70220EEE70024008000E800FEA9
:100FD000FFB5054604464035687883B0202872D1B5
:100FE0000C98002814D00D98002811D028780128DA
:100FF00069D001202870FFF75BFE074601220090B0
:101000001923D103204601F0C6FD002871D103E069
:101010000120400260646CE0212068704020A870CC
:10102000002666640C9860620D98608566630E9871
:101030000090019704A90EC9204601F0BDFC0028CC
:1010400001D02E7055E0608DFF2805D9FF22228542
:1010500001231B06009606E0608D20850096208DFA
:101060000123C2B25B062046049901F06DFD3A46A9
:1010700020460E9901F0DCFD00283AD1606A216813
:1010800000788862606A401C6062608D401E6085E6
:10109000208D401E80B22085618D00291FD0002840
:1010A0001DD100970022802120460E9B01F073FD88
:1010B00000281ED1608DFF2806D9FF22228501233A
:1010C0001B06009607E024E0608D20850096208DA9
:1010D0000123C2B25B062046049901F035FD608D04
:1010E0000028C4D13A4620460E9901F07BFD002825
:1010F00002D0012007B0F0BD20682021C161206826
:101100004268054B1A4042606970AE702E70002034
:10111000F0E70220EEE7000000E800FE10B586B020
:10112000044614216846FFF7D8F81549206888421C
:1011300023D1144CE16A02200143E162E16A0140DB
:10114000032005918002009012200190002002905F
:10115000032003900620049069460B48FFF7CAFC61
:10116000A06B012189050843A063002211461820C5
:1011700000F064F8182000F055F806B010BD00002B
:1011800000580040001002400004005070477047B3
:101190000248816802788918816070470C0000203D
:1011A00010B5084800240168402211430160032063
:1011B00000F00AF8002801D0012401E000F026F830
:1011C000204610BD0020024070B504460D4D7D2024
:1011D0002978C000FFF783F801460B480068FFF745
:1011E0007EF800F02FFD002809D1042C07D2002240
:1011F0002146401E00F022F800206C6070BD0120E6
:1012000070BD00000C000020180000200448416B55
:10121000012211434163816B0204114381637047D2
:1012200000100240002805DBC106C90E01208840DD
:10123000014908607047000000E100E010B502F0CD
:1012400005FD10BDF8B5044600780027534D800613
:1012500071D5524E403EB06BC00004D4B06BA905AE
:101260000843B06301274E480168C90511D40168DD
:10127000821511430160FFF71BFD009005E0FFF7A9
:1012800017FD0099401A642837D845480068C00502
:10129000F5D532680321090560680A400140914292
:1012A00008D08103890F032904D13168890301D54E
:1012B0000120F8BD2A69032109040A4022D0084010
:1012C00090421FD0207880061CD528692A6988435F
:1012D0000121C9040A432A612A698A432A612861D3
:1012E000C0050FD5FFF7E4FC009008E0FFF7E0FC35
:1012F0000099411A2B48814201D90320F8BD286981
:101300008005F3D561688803800F032805D1326812
:101310000005824301400A43326028690322616864
:101320001204114008432861002F04D0B16B012042
:1013300000078143B1632078C00705D0E868A16841
:10134000800880000843E8602078800705D5E868B9
:101350000C218843E1680843E8602078400706D5FF
:10136000E86803218902884321690843E8602078FE
:10137000000706D5E868032109038843616908432B
:10138000E8602078000606D5E868032189048843D0
:10139000A1690843E8600020F8BD00004010024049
:1013A0000070004088130000F8B50E46050038D0E4
:1013B0005E480068C007C00FB04214D25B4C206882
:1013C0004008400030432060FFF772FC074605E00C
:1013D000FFF76EFCC11B564881427AD82068C007CF
:1013E000C00FB042F4D12878524C800705D5E06890
:1013F000F0218843A9680843E0602878C00752D0EC
:101400006868022806D0032807D0216801280AD07E
:10141000890504E02168890301E021688901002928
:1014200003DB0120F8BD4907F9E7E1688908890075
:101430000143E160FFF73CFC0746686802280AD0D8
:10144000032814D001281ED029E0FFF731FCC11B6E
:10145000374881423DD8E0680007800F0228F4D168
:1014600021E0FFF725FCC11B3148814231D8E068FB
:101470000007800F0328F4D115E0FFF719FCC11B0A
:101480002B48814225D8E0680007800F0128F4D15D
:1014900009E0FFF70DFCC11B2548814219D8E0681F
:1014A0000007800FF5D121480168C907C90FB14273
:1014B00017D901684908490031430160FFF7F8FB7B
:1014C000074608E005E0FFF7F3FBC11B184881421F
:1014D00001D90320F8BD15480068C007C00FB0420D
:1014E000F1D12878400706D5E06807210902884332
:1014F000E9680843E0602878000707D5E06807211D
:10150000C90288432969C9000843E06000F03AF83D
:10151000E168094A0906090F515CC840074908609B
:1015200007480068FFF750FEF8BD000000200240A9
:101530008813000000100240843D000818000020BD
:1015400010000020044805490068C968044A49059C
:10155000490F515CC840704718000020001002403D
:101560009D3D0008044805490068C968044A89048B
:10157000490F515CC840704718000020001002401D
:101580009D3D000870B51A4AD3681A490C201840CE
:101590008D0004280CD04E00082810D00C2810D044
:1015A00050680004410F0120C003491C884070BDF1
:1015B0001068C00601D5084670BD284670BD30468B
:1015C00070BD98020C4C000F205C1B029C0FD3686E
:1015D000641CDB0301D5314603E01268D20600D457
:1015E000294602F00DFB22460023FEF7D7FD70BD11
:1015F0000010024000093D00943D0008FEB50500C2
:101600007ED0FE4CE7680C20E6680740012000040D
:1016100006402878C00747D0082F05D00C2F0AD1E4
:1016200001200004864206D1206880033CD568680A
:101630000028E5D038E0012069680004814203D128
:1016400021680143216011E0052301221B0492045B
:101650009942216802D111432160F1E78143216061
:10166000216801400091206890432060686800284C
:101670000DD0FFF71DFB009005E0FFF719FB009967
:10168000401A64287BD820688003F6D50CE0FFF769
:101690000FFB009005E0FFF70BFB0099401A642850
:1016A000F0D820688003F6D42878800756D509231F
:1016B000E868042F0DD00C2F01D1002E09D000288E
:1016C0003CD02168994301432160FFF7F1FA0646B7
:1016D00028E02168490701D5002891D061681F22C0
:1016E000120291432A6912021143616021689943F1
:1016F00001432160FFF746FFE16809060A0F00E099
:101700008BE1BF49895CC840BE490860BE4800689B
:10171000FFF75AFD002873D120E0FFF7C9FA801BBC
:101720000228AFD820684007F7D560681F2109025A
:10173000884329690902084360600FE02068400877
:1017400040002060FFF7B4FA064604E0FFF7B0FA65
:10175000801B022896D820684007F7D42878C00656
:1017600060D5002F0CD0A86900284AD02068FF213E
:10177000013108432060FFF79BFA06462EE0C1E0E6
:101780002068800502D5A8690028A6D060680721D6
:1017900049038843296A084360606068297F000222
:1017A000000A090608436060286A410B0120C00353
:1017B000491C8840E16809060A0F9149895CC840C4
:1017C0009049086090480068FFF7FEFC002817D198
:1017D00028E0FFF76DFA801B0228A2D82068800558
:1017E000F7D56068072149038843296A0843606088
:1017F0006068297F0002000A09060843606011E062
:10180000E2E02168FF20013081432160FFF750FAB8
:10181000064604E0FFF74CFA801B022872D82068C5
:101820008005F7D42878794E000724D56869002808
:10183000306910D0012108433061FFF739FA009078
:1018400005E0FFF735FA0099401A02285AD83069A6
:101850008007F6D50FE0400840003061FFF728FA16
:10186000009005E0FFF724FA0099401A022849D8B1
:1018700030698007F6D42878400766D500200290AA
:10188000A06BC00006D4A06B012109070843A06328
:10189000012002905E480168C90511D401688215D3
:1018A00011430160FFF704FA009005E0FFF700FA2A
:1018B0000099401A642825D855480068C005F5D518
:1018C000FF20AA680130824203D1316901433161AE
:1018D00011E001218902002A07D005231B029A4248
:1018E00003D132690A433261EFE7326982433261E0
:1018F000306988433061A868002810D0FFF7D8F914
:10190000009008E05FE0FFF7D3F901460098091A5C
:101910004048814257D830698005F4D50DE0FFF783
:10192000C7F9009006E0FFF7C3F90099411A39485A
:10193000814248D830698005F5D40298002804D047
:10194000A06B012109078843A063686A002866D05C
:101950000C2F3ED0012636060228206805D0B04361
:101960002060FFF7A5F905462FE0B0432060FFF7A0
:101970009FF9074604E0FFF79BF9C01B022822D815
:1019800020688001F7D4E96AA86AE2680843296BF5
:10199000FD231B049A4311430843E0602068304351
:1019A0002060FFF785F9054604E0FFF781F9401B49
:1019B000022808D820688001F7D530E0FFF778F9D1
:1019C000401B022801D90320FEBD20688001F5D408
:1019D00025E00128F8D0E06801210904AA6A014045
:1019E00091421AD10F218904EA6A0140914214D12F
:1019F000032189050840296B88420DE00010024050
:101A0000843D000818000020100000204010024013
:101A1000007000408813000001D00120FEBD0020AE
:101A2000FEBD704710B501F055FA10BD70B5044603
:101A30000068856906687220B0431CD1E8438107BD
:101A400007D5010605D5410603D5810601D5C00697
:101A500011D4A16C3220884304D0A16C1220884399
:101A600005D008E02946204601F074FB03E0294632
:101A7000204601F089FA7420B0431CD1E8434107A5
:101A800007D5010605D5410603D5810601D5C00657
:101A900011D4A16C4220884304D0A16C2220884339
:101AA00005D008E02946204601F054FB03E0294612
:101AB000204601F069FAF043010703D5810601D5FC
:101AC000C0060DD4E843010703D5810601D5C00641
:101AD00006D4A06C000703D52946204601F03AFB46
:101AE00070BD704770B5040004D0A06C00250028BC
:101AF00002D006E0012070BD44200555204600F0CC
:101B000069F80220A0642068016849084900016062
:101B10000F216068090688432168086120684269CE
:101B20000121C9038A434261206842695200520878
:101B300042612268206B5061206882688A4382601B
:101B4000E068002807D02269012A01D021218902FA
:101B50000843216888602069022802D12168800238
:101B6000486020684168184A11434160A169606972
:101B70000843E169090208432168C860616A206A74
:101B8000E26A0843A16A11430843A1680843216837
:101B900008600121A06AC90588420BD1E06A0028CB
:101BA00002D08910884205D1206801680122120400
:101BB0001143016021680A68012002430A60E5645C
:101BC0002064A064002070BD008000027047704750
:101BD0007047000010B586B0044614216846FEF731
:101BE0007CFB14492068884222D1134CE16A022010
:101BF0000143E162E16A01400591C020009012209A
:101C00000190002002900320039001200490694677
:101C10000A48FEF76FFFA06B012149050843A06346
:101C2000002211461720FFF709FB1720FFF7FAFAE9
:101C300006B010BD005400400010024000040050E7
:101C400070477047094910B5401E884201D90120EC
:101C500010BD074C60610321081F01F0F7FF002051
:101C6000A06107202061002010BD0000FFFFFF00E1
:101C700000E000E0F0B502462032137E012B1ED0BA
:101C8000012515760223537606687468B3687027B9
:101C9000BC430F68274377600068AC07A04205D0BB
:101CA000084CA04202D0084CA04204D180244968CC
:101CB000A34319438160557600201076F0BD0220C1
:101CC000F0BD0000000801400014014070B505009F
:101CD00005D02C462034607E002802D006E001208A
:101CE00070BD00202076284600F010F802206076B3
:101CF000291D286801F0B6FB0120A077A076E076C8
:101D0000207760776076002070BD000010B5006815
:101D1000084988420CD10848816B10221143816325
:101D2000002211461120FFF789FA1120FFF77AFAF5
:101D300010BD00000010004000100240014620319C
:101D40004A7E012A01D00120704702224A760268A9
:101D5000D36801210B43D36000688A07904205D005
:101D6000074A904202D0074A904204D18268520743
:101D7000520F062A02D002680A4302600020704710
:101D800000080140001401400168CA68520852006E
:101D9000CA6001680A6A064B1A4203D10A685208EF
:101DA00052000A6001212030417600207047000077
:101DB00011110000704770B50446006801690025E4
:101DC000C9438907002915DBC168C943890711D4B4
:101DD000E91E016101202076206880698007204685
:101DE00002D0FFF7E7FF04E000F078F8204600F0AB
:101DF00076F8257620680169C943490717D4C16878
:101E0000C943490713D40421C94301610220207644
:101E1000206880698005800F204602D0FFF7CAFF46
:101E200004E000F05BF8204600F059F825762068C1
:101E30000169C943090716D4C168C943090712D407
:101E40000821C9430161042020762068C069800709
:101E5000204602D0FFF7AEFF04E000F03FF8204636
:101E600000F03DF8257620680169C943C90617D4FA
:101E7000C168C943C90613D41021C94301610820B0
:101E800020762068C0698005800F204602D0FFF7C9
:101E900091FF04E000F022F8204600F020F82576BB
:101EA00020680169C943C90708D1C168C943C90786
:101EB00004D1891E0161204600F012F820680169F2
:101EC000C943490609D4C168C943490605D440211C
:101ED000C9430161204600F059F870BD7047704752
:101EE000F8B500682549884247D1254C002620785E
:101EF000042841D92348FFF747FF2248006846627B
:101F0000214D287801282BD121782846FEF740FD65
:101F1000002825D0688841BAA88842BA6878032882
:101F20001ED1678800203B0A9E46FBB29C460BE010
:101F3000012901D0022904D173462F18FB70634692
:101F40003B71491C89B2401C9042F1DB688840BA61
:101F50004006010EA9700C48C91CFEF74BFD20700D
:101F60000122052011020007FEF79CFE0548227899
:101F70000549403000F028FA2670F8BD00100040F6
:101F800004000020DC010020400000207047704762
:101F900070477047F8B502680446D06911689668C2
:101FA000A24B05461D402023002D75D0F707A04DFC
:101FB000FF0FBC460D402F436DD02546C707803527
:101FC000002F06D0CF0504D5012717622A683A43AF
:101FD0002A60820708D5F20706D0276802223A62F3
:101FE0002A6804273A432A60420708D5F20706D038
:101FF0002668042232622A68022632432A600207D7
:102000000AD50A461A406646324305D02668082299
:1020100032622E6816432E60020508D54A0106D5A5
:1020200001222668D20232622A681A432A602A688C
:10203000002A39D0800606D5880604D5616E0029AD
:1020400001D020468847286821688968490602D45B
:10205000282108422DD0204601F0D2FA2168886854
:10206000400622D5EFF31080012282F310888B689E
:10207000402293438B6080F31088206F002814D097
:102080006C498163206FFEF7F9FC00280CD0206FAB
:10209000816B08E000E012E0850610D58D060ED5B4
:1020A000616EA9E020468847F8BD2046FFF771FF22
:1020B000F8BD2046FFF76DFF00202860F8BD256EB3
:1020C000012D7CD1C5067AD5CD0678D510261662AD
:1020D00022689068254640064035002846DA216F80
:1020E000086840680004000CE8D02F8B8742E5D9CF
:1020F000688308680068800633D4EFF310800121FC
:1021000081F3108811683701B943116080F310889A
:10211000EFF31080012181F3108821688A6852084A
:1021200052008A6080F31088EFF31080012181F360
:10213000108821688A684027BA438A6080F3108833
:10214000E36700202066EFF31080012181F31088FF
:1021500021680A68B2430A6080F31088206FFEF796
:102160006BFC288B698B401A81B231E0288B698B1C
:10217000401A81B2688B0028A0D000299ED0EFF3CE
:102180001080012585F310881568FF272137BD438E
:10219000156080F31088EFF31080012282F310881D
:1021A000226895686D086D00956080F31088E3677C
:1021B000002020666066EFF31080012200E00BE053
:1021C00082F3108822681368B343136080F3108889
:1021D0002046FFF7DCFEF8BDC50208D5750206D51E
:1021E0000120000510622046FFF7D2FEF8BD05066B
:1021F00006D50D0604D5A16E002900D052E7F8BD22
:102200004006FCD54806FAD52046EFF3108101249C
:1022100084F3108814684025AC43146081F310885F
:1022200083670021816600F013F9F8BD0F080000F4
:1022300020010004ED35000810B5040003D0A06FA4
:10224000002802D007E0012010BD002174200155B4
:10225000204600F027F82420A0672068016849087C
:1022600049000160204601F0A3FA0128ECD0606A21
:10227000002802D0204601F021F920684168092297
:10228000D20291434160206881682A229143816093
:1022900020680168012211430160204601F074F9B1
:1022A00010BD000010B586B0044614216846FEF744
:1022B00014F815492068884224D11448416B012242
:1022C000920311434163C16A01221143C162C06A92
:1022D00069461040059003204002009002200190C2
:1022E00000200290032003900420049005200007A2
:1022F000FEF700FC002211461B20FEF79FFF1B206B
:10230000FEF790FF06B010BD0038014000100240FB
:1023100070B5C36F202B2ED100290BD0002A09D015
:10232000012483682403A34206D10369002B03D14F
:10233000CB0701D0012070BD034660331C7D012C0A
:1023400019D001241C75002303660C4B04689C42C1
:102350000ED063681B020BD5EFF31083012585F3C4
:10236000108825680126B6063543256083F310885A
:1023700001F01EFB70BD022070BD0000004800404F
:102380000E4910B5884218D108464038FFF7FCFCCA
:102390000A49002040390968486208484038FFF778
:1023A000CDFC0749074B08784A781A54401C08703E
:1023B0000122491C0148FFF7ABFF10BD1C020020A1
:1023C000040000204000002070B5836F202B38D11E
:1023D00000290AD0002A08D08568DC01A54206D170
:1023E0000369002B03D1CB0701D0012070BD034648
:1023F00060331E7D012E24D001261E75C164014666
:1024000040310A824A8200218022816611502122B5
:102410008267A54202D10269002A10D00A4A826668
:102420001975EFF31081012282F3108800680268A9
:1024300080231A43026081F31088002070BD034A94
:10244000EDE7022070BD0000C33A0008653A0008BD
:102450000A4910B588420FD1FF2105200022013121
:102460000007FEF71FFC012205490448FFF750FF53
:1024700003490020491E087010BD00001C02002006
:1024800005000020FEE7000010B5064800688069DE
:102490008004800E034802D0FFF7C4FA10BDFFF796
:1024A000C5FA10BD4001002010B5064800688069DB
:1024B0004005400F034802D0FEF74BFC10BDFEF76D
:1024C00077FC10BD9001002010B5806A0021826B5E
:1024D000002A00D09163C26B002A00D0916300F003
:1024E00047FB10BDF0B504460022CE074034282338
:1024F000B025002E05D0667842221F46B74300D093
:10250000F2228E0705D5442664783243A34300D0D7
:102510002A43CB0B01D0B8231A43102908D0202915
:1025200007D0402905D00068016891430160F0BDE3
:1025300090210A43F7E701688A69D243920701D4E0
:1025400000228A6200688169C943C90703D0816992
:102550000122114381617047F8B5054604464035B4
:10256000687828218143206804D00821C1610020B7
:102570002870F8BD8169C903CF0F8169FE230E0C55
:1025800081681E408A05C168920D19408C46E16839
:10259000022916D10621D3090E400B409E420FD1CD
:1025A000A16C491CA164A16C0229E2D10021A164A3
:1025B0000823C361297039462046FEF7C9FBF8BDE0
:1025C00066460121C9032046FFF78CFF00202870D2
:1025D0003246F0E7F8B505460446403568780026EF
:1025E000AE70334AE2626685626C0A4362642828F0
:1025F0001ED029281CD02A281AD02E492046FFF7A1
:1026000071FF6878602801D0202068706663206BB5
:10261000A16B294F002903D0112812D0212810D0F6
:10262000E16B002925D0122827D0222825D020E0D0
:1026300003212046FFF756FF282068701F4860637B
:10264000E5E720680168490404D501680122920386
:1026500091430160A06BFEF737FA012809D0A06B07
:1026600087632E70A06BFEF709FA002804D0A06BD8
:102670001AE0204600F07CFAF8BD206801680904E1
:1026800004D501680122D20391430160E06BFEF79B
:102690001BFA0128EDD0E06B87632E70E06BFEF72C
:1026A000EDF90028E8D0E06B816B8847F8BD0000A9
:1026B0000000FFFF03800000C9240008192A000859
:1026C00070B504461648E0620025256320222046A6
:1026D0004030064642708570C8436563400712D497
:1026E0002068406A616A0870606A401C6062208DE0
:1026F000002808D0401E2085608D401E6085606CDB
:1027000004210843606407492046FFF7EBFE216877
:102710001020C86135702046FEF7AEFB70BD00008A
:102720000000FFFF03800000F8B502680446166849
:102730000546403568780F462021D161212806D012
:10274000292804D0222808D02A2806D00CE04249A3
:102750002046FFF7C7FE212005E03F492046491CDF
:10276000FFF7C0FE22202063206841680122D203C7
:102770001143416020684168384A11404160204659
:10278000FFF7D9FEF043410407D420680168012215
:10279000920391430160A06B08E000040BD4206811
:1027A00002680121C9038A430260E06B002802D05D
:1027B000006840686085F8434007042100280FDB6B
:1027C00020688F43406A626A1070606A401C6062D1
:1027D000208D002804D0401E2085608D401E60851D
:1027E000608D002802D0606C084360640026AE70E3
:1027F0006663606C00280BD0616C2046FFF7EAFE30
:102800006878282803D139462046FFF759FFF8BDDC
:10281000E06A134FB8420BD0204600F023F8E7627D
:102820002020687026632E702046FEF725FBF8BD39
:102830006878222807D02020687026632E702046F2
:10284000FEF7A5FCF8BD2020687026632E70204698
:10285000FEF79CFCF8BD00000180000000E800FECF
:102860000000FFFF70B505460068016800262C4691
:102870004034A670C9434A0403D40168012292037C
:1028800004E0090404D401680122D20391430160E9
:102890006178282029290ED061782A290AD1607010
:1028A0002220286302212846FFF71CFE26702846B6
:1028B000FEF76CFC70BD6070212028630121284662
:1028C000FFF710FE26702846FEF761FC70BD000081
:1028D000F7B5044600680F468169C943C90636D476
:1028E0004168890104D44168012292031143416087
:1028F00000262546403520688069C043800612D5F1
:10290000781CF8D0FEF7D4F90299401AB84201D8E1
:10291000002FF0D1616C2020014361646870AE70BB
:102920002E700120FEBD21681020C861206820277C
:10293000C7612046FFF7FFFD20684168054A114046
:102940004160606C0421084360646F70E7E7002019
:10295000FEBD000000E800FEF8B504461646154826
:102960001D46DAB20090079F0023204600F0ECF8E5
:102970003A462046069900F05BF9002818D128460F
:10298000F5B2012809D02168300A88623A4620460B
:10299000069900F04DF900280AD120688562009759
:1029A000002240212046069B00F0F5F8002800D0C8
:1029B0000120F8BD00200080F8B5044616461548F1
:1029C0001D46DAB2C3020090079F204600F0BCF813
:1029D0003A462046069900F02BF9002818D12846DF
:1029E000F5B2012809D02168300A88623A462046AB
:1029F000069900F01DF900280AD120688562009729
:102A0000002280212046069B00F0C5F8002800D057
:102A10000120F8BD00200080FEB5C56A04460646C8
:102A2000403601913078012828D00120307001987B
:102A3000D743C04300908006002805DBB80603D4C6
:102A400020460199FFF770FE00983D493D4AC006B7
:102A500030D4F8062ED4638D1020002B10D02168BE
:102A6000C861606C042108436064002D01D0954268
:102A700062D1616C2046FFF7ADFD5DE00220FEBD36
:102A80007278282A08D101225206954204D12046A4
:102A90000199FFF715FE4FE07278292A07D18D4280
:102AA00005D02168C8612046FFF745FD41E0216857
:102AB000C86141E00098400717D4780715D4608DAD
:102AC00000280CD02068406A626A1070606A401C5E
:102AD0006062208D401E2085608D401E6085608D67
:102AE000002829D18D4224D126E00098000706D481
:102AF000380704D420460199FFF72EFD1CE000980A
:102B0000800719D4B80717D4608D00280DD0606AEB
:102B1000216800788862606A401C6062608D401E97
:102B20006085208D401E208506E0954201D0002D55
:102B300002D12046FFF796FE00203070FEBD000057
:102B40000000FFFF00000001F0B50668059C7568F5
:102B5000064F600D384385438805800D11040843F6
:102B60001843204305437560F0BD0000FF63FF0379
:102B700010B5014640314B780022602B04D002632F
:102B80000A70FEF71DF910BD20234B7002630A7016
:102B9000FEF7DDF810BDF8B51D4617460E46044693
:102BA00009E0681C07D0FEF783F80699401AA8428E
:102BB0000BD8002D09D020688169304688430FD09A
:102BC0000020B842EDD00020F8BD616C2020014308
:102BD0006164403460700020A07020700120F8BD56
:102BE0000120EEE770B516460D4604460FE032466A
:102BF00029462046FFF76CFE002801D0012070BD59
:102C0000FEF756F8801BA84208D8002D06D0206891
:102C10008069C0438006EAD4002070BD616C20202A
:102C200001436164403460700020A0702070E5E7CB
:102C300070B516460D46044611E032462946204638
:102C4000FFF746FE002801D0012070BD681C06D0A9
:102C5000FEF72EF8801BA84208D8002D06D0206869
:102C60008069C0438007E8D4002070BD616C2020DB
:102C700001436164403460700020A0702070E3E77D
:102C80003EB5012300921B040A460224029301462A
:102C9000019401230348FEF7F1F8002801D0FDF765
:102CA000A1FE3EBD900100203EB5012300921B0411
:102CB0000A46032402930146019401230348FEF7C8
:102CC000DDF8002801D0FDF78DFE3EBD900100200B
:102CD000F0B587B014216846FDF7FFFA2548C16AB0
:102CE00001252943C162C16A29400591C26A0221B6
:102CF0000A43C262C06A05260840360705900022D2
:102D00001D493046FDF7CEFF1C4F012214213846E5
:102D1000FDF7C8FF0321002289033846FDF7C2FFF3
:102D20000122D1023046FDF7BDFF15480024009076
:102D300002946946019503943046FDF7DBFE114885
:102D4000009002946946019503943846FDF7D2FE3F
:102D5000E80300900194694602943046FDF7CAFEEC
:102D6000082000900194694602943846FDF7C2FE9F
:102D700007B0F0BD001002407811000000040050C0
:102D80007819000014C0000010B50E480C4901600D
:102D90000D4941600222C260002181604161816170
:102DA000C16101624162012281620261C16207491F
:102DB0000163FEF797FE002801D072B6FEE710BD52
:102DC0000054004040010020F3981010C380000020
:102DD00010B513481149016012494160002181601A
:102DE0000161416181610122C161C2600162FDF73F
:102DF000E9FF002801D072B6FEE700210848FDF780
:102E00005DFF002801D072B6FEE700210448FDF7FF
:102E10007AFF002801D072B6FEE710BD00580040CE
:102E2000900100205B3D300010B50C480A4901605C
:102E30004B210902416000218160C1600161816113
:102E4000C1610C22016242614162FFF7F5F900287D
:102E500001D072B6FEE710BD003801401C02002010
:102E6000FEE7704770B5836C00228024012B02D1ED
:102E70000D0600D58022F2268E4330250068002EF4
:102E80000BD1422632430668760203D41E0704D4CF
:102E9000224301E01E0700D42A43D4268E430BD1DF
:102EA000442632430668760203D41B0704D4224327
:102EB00001E01B0700D42A438906490F072905D1E1
:102EC00038210A430168490200D422430168914332
:102ED000016070BD70B503689A691968D505012451
:102EE000002D06DA0D0604D5C56C2543C564250200
:102EF000DD6155050823002D07DA0D0605D5C56CE3
:102F00001D43C5640668DD01F561950508D50D060C
:102F100006D5C56C02263543C56435020668F561E1
:102F2000D50408D50D0606D5C56C20263543C564E5
:102F3000F5010668F561950408D50D0606D5C56C42
:102F400040263543C564F5010668F561120508D5CC
:102F5000090606D5C16C80221143C16411010268C3
:102F6000D161C16C00290ED004290CD0490608D4C7
:102F7000816C32228A4302D042228A4301D1046406
:102F80008364FEF7AEFD70BDF8B5054604464035D6
:102F90002879012812D001202871CF43F806002695
:102FA00000280DDB21681020C861E06C0421084373
:102FB000E0642E712046FEF794FDC5E00220F8BDC6
:102FC000B80643D42046FFF785FFA06C122803D033
:102FD000A06C22281AD0B7E0F2212046FFF742FF6A
:102FE00021682020C86120684168594A1140416029
:102FF0002068016849084900016001202064A0643C
:103000002E7121680A6802430A608DE078070ED4A9
:103010002068406A616B0870606B401C6063208FA1
:10302000002804D0401E2087608F401E6087D42176
:103030002046FFF717FF21682020C86120684168FB
:10304000434A114041600120206478E0780704D4AD
:103050002068406A616B087005E0B80707D4606BB0
:10306000216800788862606B401C60632DE0380640
:103070003DD4608F002802D0208F002803D0608FBD
:10308000002829D060E0206840688105608F890DA4
:10309000FF280DD90096E06B012292061040921095
:1030A0008318FF22204600F077F9FF2020874BE0AD
:1030B000608F20870096E36B208FC2B2204600F01D
:1030C0006BF92068406840013ED5208F401E208764
:1030D000608F401E608737E0208F00280FD033E0DC
:1030E000A06C122817D0A06C222821D02CE07806E2
:1030F0002AD4608F002827D1606B002804D0206874
:1031000040688001ECD51FE02068416801229203ED
:103110001143416018E0F2212046FFF7A3FEA06CA6
:1031200020640120A0642E712046FEF751FD0BE0C3
:10313000D4212046FFF796FEA06C20640120A064F5
:103140002E712046FEF743FD2E710020F8BD0000D1
:1031500000E800FEF8B506460446403630790128FE
:1031600023D001203071CF43F906422000250029E9
:1031700021DB628F1021002A19D02268D161A16C55
:103180002164A26C32218A43A264A16C8143A164B0
:10319000F6212046FFF766FEE06C04210843E06458
:1031A00035712046FEF79DFCB3E00220F8BD206893
:1031B000C1613571ADE0390711D420688169C90357
:1031C000C90F8C468169036809024A0E08218B43A6
:1031D0000360357161462046FEF723FC99E07907CC
:1031E00001D5390672D4A16C42228A4367486849E6
:1031F00004D0A36C32229A433DD08AE02268526AFE
:10320000636B1A70626B521C6263228F521E22879C
:10321000628F521E6287628F012A12D0628F002A4B
:103220001AD00095E26B0A401318012200212046B3
:1032300000F0B2F8206841680122D2039143416056
:1032400067E0E16B8143E1630095E36B01220021BC
:10325000204600F0A1F85CE0D4212046FFF702FEF2
:10326000A06C2064A16C42208143A164357120468A
:10327000FEF7E6FC4DE0628F002A4AD0228F002A3A
:1032800047D1628FFF2A0BD90095E26B0A401318D1
:10329000FF220021204600F07FF8FF20208738E041
:1032A000608F20870095E36B208F0021C2B22046FB
:1032B00000F072F82068406840012AD5208F401E37
:1032C0002087608F401E608723E0FFE7B80720D487
:1032D000608F00280CD0606B216800788862606B7A
:1032E000401C6063608F401E6087208F401E2087D7
:1032F000608F00280DD1F2212046FFF7B3FDA06CAE
:103300002064A16C32208143A16435712046FEF710
:1033100098FCB80637D4A06C000734D520688169C2
:10332000C94349070DD4406A616B0870606B401C4B
:103330006063208F002804D0401E2087608F401ECD
:103340006087F6212046FFF78DFD38212046FFF7E4
:1033500089FD206841680122D20311434160206841
:1033600041680C4A1140416021682020C8612168F1
:103370000820C861E563A06C20640120A064357159
:103380002046FEF723FC35710020F8BD0000000147
:103390000000000400E800FEF0B50668059C7568B2
:1033A000064F600D384385438805800D110408439E
:1033B0001843204305437560F0BD0000FF63FF071D
:1033C000704710B5FDF7E4FE10BD000030B599B0B0
:1033D00034216846FCF781FF14210DA8FCF77DFF1E
:1033E0001C2112A8FCF779FF184801680322D202B9
:1033F0009143C2148918016002200090002410201B
:1034000009940125049003956846FEF7F7F8002813
:1034100001D072B6FEE70F200D900F94109400219A
:103420000E9511940DA8FDF7BFFF002801D072B6CC
:10343000FEE7092017941290149412A8FDF702FFDA
:10344000002801D072B6FEE719B030BD0070004010
:103450007047000010B50248FEF7ADFC10BD00003B
:10346000DC01002070B5026801239B07114C124D4E
:10347000984203D0A04201D0A84203D17026B243A3
:103480004E683243984203D0A04201D0A84204D1F2
:1034900003231B029A43CB681A4380239A430B6988
:1034A0001A4302608A68C26209688162012141612F
:1034B00070BD0000000801400014014010B5818C6F
:1034C000C90707D001684A6801235B049A43836AED
:1034D0001A434A60818C890707D501684A6801232D
:1034E0001B049A43C36A1A434A60818C490707D573
:1034F00001684A6801239B049A43036B1A434A609C
:10350000818C090707D501684A680123DB039A43C8
:10351000436B1A434A60818CC90607D502689168DB
:1035200001231B039943836B19439160818C8906A6
:1035300007D501688A6801235B039A43C36B1A436A
:103540008A60818C490612D503685A6801210905F1
:10355000046C8A4322435A60026C8A4207D1026893
:10356000516803235B059943436C19435160818C77
:10357000090607D501684A680123DB04806C9A4379
:1035800002434A6010BD0000F8B5044600268030B2
:103590000660FDF78DFB054620680068124F0007A6
:1035A00009D501212B46002249052046009700F04D
:1035B000B5FA00280DD12068006840070BD501211D
:1035C0002B46002289052046009700F0A7FA002824
:1035D00001D00320F8BD2020A067E0672666603494
:1035E00026750020F8BD0000FFFFFF0110B5806ABE
:1035F0000022014640314A834A82FEF7CAFC10BDD0
:1036000010B5EFF31081012282F31088026813686D
:10361000FF242134A343136081F31088EFF310815A
:10362000012282F31088026893685B085B00936054
:1036300081F31088016E01290BD1EFF31081012273
:1036400082F31088026813681024A343136081F387
:1036500010882021C16700210166416610BD70B548
:10366000014640318B8BC46F0268222C04D09069D4
:1036700008210843906170BD526A446D1A4022804F
:10368000426D921C42654A8B521E4A834A8B002A25
:10369000F1D1EFF31082012383F3108803681C68D3
:1036A000FF252135AC431C6082F31088EFF31082B4
:1036B000012383F3108803689C68640864009C609D
:1036C00082F310882022C26700224266036E012B1B
:1036D00002D0FEF755FE70BD0266EFF310820123A3
:1036E00083F310880468256810239D43256082F3C6
:1036F00010880268D469E443E40600D41362098B9D
:10370000FEF745FC70BD70B5014640318B8BC46F30
:103710000268222C04D0906908210843906170BD92
:10372000526A1A40436D1A70426D521C42654A8BB0
:10373000521E4A834A8B002AF1D1EFF310820123F3
:1037400083F3108803681C68FF252135AC431C6097
:1037500082F31088EFF31082012383F3108803684B
:103760009C68640864009C6082F310882022C26711
:1037700000224266036E012B02D0FEF701FE70BDEF
:103780000266EFF31082012383F310880468256832
:1037900010239D43256082F310880268D469E443B6
:1037A000E40600D41362098BFEF7F1FB70BD000044
:1037B000F8B50446016880682369E66918436369BF
:1037C000002533431843724A0B68724E334003435B
:1037D0000B602168486803231B039843E368184380
:1037E00048602168A069914201D0236A18438B6820
:1037F0000B263602B34303438B606749236867484F
:103800008B420CD1C0688007800F06D0012839D0C8
:10381000022835D0032821D11EE001271FE060498E
:103820008B420AD1C0680C21084027D0042829D037
:10383000082825D00C2811D10EE093420ED1C16882
:1038400003208002014019D001208002091A19D0FA
:10385000091A15D0814201D1082700E010274F49ED
:10386000504840398600934232D1002F0CD0022FAD
:103870000DD0042F10D0082F7FD126E00027EEE7CF
:103880000227ECE70427EAE7FDF75CFE06E009689B
:10389000C90605D4304603E0FDF774FE002872D057
:1038A000626851005118814267D81103814264D384
:1038B000010E06025008002330185941FCF76EFC37
:1038C00003210902411A384A55E00120C003E7E705
:1038D0000122E369D20393422BD13B0000F0A8F907
:1038E0000906090C4D114D4D4D274D00FDF72AFEDF
:1038F00009E0FDF737FE06E00968C90605D4304641
:1039000003E0FDF73FFE00283DD0616840004A0813
:103910008018FCF7E4FC80B20146244A1039914239
:103920002BD8511C01400007400F084329E01046E6
:10393000EBE73B0000F07CF90906090C211221217C
:1039400021232100FDF7FEFD0AE0FDF70BFE07E055
:103950000968C90606D4304604E00EE0FDF712FE01
:10396000002810D061684A081018FCF7B8FC80B233
:1039700001460E4A1039914203D9012503E0104651
:10398000F0E72168C86000206066A0662846F8BDA0
:1039900000480040F369FFEF00380140401002404A
:1039A0000044004000093D00FFFC0F00EFFF000055
:1039B00070B54165014640310A834A830022426660
:1039C000012384681B03FF259C4204D10469002C59
:1039D00013D1214C0AE07F26002C09D001252D07A8
:1039E000AC420CD10469002C05D03F248C8307E045
:1039F0000469002C01D08E8302E08D8300E08A836D
:103A000080210A502221C167EFF31081012484F341
:103A100010880468A56801263543A56081F31088E5
:103A20008168994202D10169002912D00B4941668F
:103A300074210A54EFF31081012282F31088006888
:103A40000268FF2321331A43026081F310880020AB
:103A500070BD0349EBE70000FF01000007370008D5
:103A60005F36000810B5816F212910D10146403121
:103A70004A8A002A0CD0C26C03681288D205D20D83
:103A80009A62C26C921CC264488A401E488210BD71
:103A9000EFF31081012282F31088026813688024FA
:103AA000A343136081F31088EFF31081012282F3A6
:103AB00010880068026840231A43026081F310886E
:103AC00010BD10B5816F21290ED1014640314A8ABF
:103AD000002A0AD0C26C036812789A62C26C521C27
:103AE000C264488A401E488210BDEFF31081012253
:103AF00082F31088026813688024A343136081F363
:103B00001088EFF31081012282F3108800680268A8
:103B100040231A43026081F3108810BDFFB581B0C5
:103B200005461746044660350A9E55E0701C53D082
:103B3000FDF7BEF80499401AB04230D8002E2ED0BE
:103B400020680168490747D5C069C043000543D4D0
:103B500001202168C0020862EFF31080012181F387
:103B6000108821680B68FF22A13293430B6080F319
:103B70001088EFF31080012181F3108821688A6892
:103B8000520852008A6080F310882020A067E06706
:103B90008034206000202875032005B0F0BDEFF3CD
:103BA0001080012181F3108821680B68FF22A13267
:103BB00093430B6080F31088EFF31080012181F3B1
:103BC000108821688A68520852008A6080F3108841
:103BD0002020A067E067DDE72068C169029888437C
:103BE00004D00020B842A1D00020D6E70120F9E798
:103BF00010B50248FEF7CEF910BD00001C020020EF
:103C0000F8B5040C8BB2264682B25E430D0C10460A
:103C1000370C5843360480190021794116466E430B
:103C2000370C36048019794126466E438919F8BD50
:103C300030B47446641E2578641CAB4200D21D4625
:103C4000635D5B00E31830BC184700008307FF2268
:103C5000DB0E9A408907090E9940002808DB83088B
:103C600009489B001B181868904308431860704768
:103C70000007000F0838830804489B001B18D86908
:103C800090430843D861704700E400E000ED00E095
:103C90001CB5FDF785FAFFF799FBFFF719F8FFF759
:103CA00097F8FFF7C1F80025334C0095314801958E
:103CB00020600F20A5606060FF20F5306561E06046
:103CC0002046FEF703F8002801D072B6FEE7009503
:103CD000694629480195FDF7CDFF002801D072B64D
:103CE000FEE7FFF751F80A20FCF7F2FE05252D0745
:103CF000012210212846FCF7D5FF204E0122910316
:103D00003046FCF7CFFF0A20FCF7E2FE012220211B
:103D10002846FCF7C7FF0A20FCF7DAFE0122402103
:103D20002846FCF7BFFF012204213046FCF7BAFF0A
:103D30000A20FCF7CDFEFCF7AEFC01220821284644
:103D4000FCF7B0FF002204213046FCF7ABFF012056
:103D50002168C04308610848012209494030FEF744
:103D6000D7FA074C641EFCF771FD6060FCF718FC85
:103D70006080F8E700100040DC01002000040050E3
:103D80000500002000000000000000000102030404
:103D900006070809030406080C101820300000006C
:103DA00000010203048182838485868788898B8C45
:103DB0008D8E8F919293959697999A9C9D9FA0A294
:103DC000A3A5A7A8AAACAEB0B2B3B5B7B9BCBEC0E4
:103DD000C2C5C7C9CCCED1D4D7D9DCDFE2E6E9EC85
:103DE000F0F3F7FAFE000000083E00080000002093
:103DF0001C00000004010008243E00081C000020F4
:103E0000E40800002001000800000000000000009D
:103E1000000000000100000004000000000000009D
:043E2000000020007E
:04000005080000C12E
:00000001FF
